{
  "contractName": "ZombieHelper",
  "abi": [
    {
      "anonymous": false,
      "inputs": [
        {
          "indexed": false,
          "internalType": "uint256",
          "name": "zombieId",
          "type": "uint256"
        },
        {
          "indexed": false,
          "internalType": "string",
          "name": "name",
          "type": "string"
        },
        {
          "indexed": false,
          "internalType": "uint256",
          "name": "dna",
          "type": "uint256"
        }
      ],
      "name": "NewZombie",
      "type": "event"
    },
    {
      "anonymous": false,
      "inputs": [
        {
          "indexed": true,
          "internalType": "address",
          "name": "previousOwner",
          "type": "address"
        },
        {
          "indexed": true,
          "internalType": "address",
          "name": "newOwner",
          "type": "address"
        }
      ],
      "name": "OwnershipTransferred",
      "type": "event"
    },
    {
      "inputs": [
        {
          "internalType": "string",
          "name": "_name",
          "type": "string"
        }
      ],
      "name": "createRandomZombie",
      "outputs": [],
      "stateMutability": "nonpayable",
      "type": "function"
    },
    {
      "inputs": [
        {
          "internalType": "uint256",
          "name": "_zombieId",
          "type": "uint256"
        },
        {
          "internalType": "uint256",
          "name": "_kittyId",
          "type": "uint256"
        }
      ],
      "name": "feedOnKitty",
      "outputs": [],
      "stateMutability": "nonpayable",
      "type": "function"
    },
    {
      "inputs": [],
      "name": "isOwner",
      "outputs": [
        {
          "internalType": "bool",
          "name": "",
          "type": "bool"
        }
      ],
      "stateMutability": "view",
      "type": "function"
    },
    {
      "inputs": [],
      "name": "owner",
      "outputs": [
        {
          "internalType": "address",
          "name": "",
          "type": "address"
        }
      ],
      "stateMutability": "view",
      "type": "function"
    },
    {
      "inputs": [],
      "name": "renounceOwnership",
      "outputs": [],
      "stateMutability": "nonpayable",
      "type": "function"
    },
    {
      "inputs": [
        {
          "internalType": "address",
          "name": "_address",
          "type": "address"
        }
      ],
      "name": "setKittyContractAddress",
      "outputs": [],
      "stateMutability": "nonpayable",
      "type": "function"
    },
    {
      "inputs": [
        {
          "internalType": "address",
          "name": "newOwner",
          "type": "address"
        }
      ],
      "name": "transferOwnership",
      "outputs": [],
      "stateMutability": "nonpayable",
      "type": "function"
    },
    {
      "inputs": [
        {
          "internalType": "uint256",
          "name": "",
          "type": "uint256"
        }
      ],
      "name": "zombieToOwner",
      "outputs": [
        {
          "internalType": "address",
          "name": "",
          "type": "address"
        }
      ],
      "stateMutability": "view",
      "type": "function"
    },
    {
      "inputs": [
        {
          "internalType": "uint256",
          "name": "",
          "type": "uint256"
        }
      ],
      "name": "zombies",
      "outputs": [
        {
          "internalType": "string",
          "name": "name",
          "type": "string"
        },
        {
          "internalType": "uint256",
          "name": "dna",
          "type": "uint256"
        },
        {
          "internalType": "uint32",
          "name": "level",
          "type": "uint32"
        },
        {
          "internalType": "uint32",
          "name": "readyTime",
          "type": "uint32"
        },
        {
          "internalType": "uint16",
          "name": "winCount",
          "type": "uint16"
        },
        {
          "internalType": "uint16",
          "name": "lossCount",
          "type": "uint16"
        }
      ],
      "stateMutability": "view",
      "type": "function"
    },
    {
      "inputs": [],
      "name": "withdraw",
      "outputs": [],
      "stateMutability": "nonpayable",
      "type": "function"
    },
    {
      "inputs": [
        {
          "internalType": "uint256",
          "name": "_fee",
          "type": "uint256"
        }
      ],
      "name": "setLevelUpFee",
      "outputs": [],
      "stateMutability": "nonpayable",
      "type": "function"
    },
    {
      "inputs": [
        {
          "internalType": "uint256",
          "name": "_zombieId",
          "type": "uint256"
        }
      ],
      "name": "levelUp",
      "outputs": [],
      "stateMutability": "payable",
      "type": "function"
    },
    {
      "inputs": [
        {
          "internalType": "uint256",
          "name": "_zombieId",
          "type": "uint256"
        },
        {
          "internalType": "string",
          "name": "_newName",
          "type": "string"
        }
      ],
      "name": "changeName",
      "outputs": [],
      "stateMutability": "nonpayable",
      "type": "function"
    },
    {
      "inputs": [
        {
          "internalType": "uint256",
          "name": "_zombieId",
          "type": "uint256"
        },
        {
          "internalType": "uint256",
          "name": "_newDna",
          "type": "uint256"
        }
      ],
      "name": "changeDna",
      "outputs": [],
      "stateMutability": "nonpayable",
      "type": "function"
    },
    {
      "inputs": [
        {
          "internalType": "address",
          "name": "_owner",
          "type": "address"
        }
      ],
      "name": "getZombiesByOwner",
      "outputs": [
        {
          "internalType": "uint256[]",
          "name": "",
          "type": "uint256[]"
        }
      ],
      "stateMutability": "view",
      "type": "function"
    }
  ],
  "bytecode": "0x60806040526010600155600154600a6200001a919062000280565b6002556201518060035566038d7ea4c680006008553480156200003b575f80fd5b50335f806101000a81548173ffffffffffffffffffffffffffffffffffffffff021916908373ffffffffffffffffffffffffffffffffffffffff1602179055505f8054906101000a900473ffffffffffffffffffffffffffffffffffffffff1673ffffffffffffffffffffffffffffffffffffffff165f73ffffffffffffffffffffffffffffffffffffffff167f8be0079c531659141344cd1fd0a4f28419497f9722a3daafe3b4186f6b6457e060405160405180910390a3620002d0565b7f4e487b71000000000000000000000000000000000000000000000000000000005f52601160045260245ffd5b5f8160011c9050919050565b5f808291508390505b600185111562000184578086048111156200015c576200015b620000fa565b5b60018516156200016c5780820291505b80810290506200017c8562000127565b94506200013c565b94509492505050565b5f826200019e576001905062000270565b81620001ad575f905062000270565b8160018114620001c65760028114620001d15762000207565b600191505062000270565b60ff841115620001e657620001e5620000fa565b5b8360020a9150848211156200020057620001ff620000fa565b5b5062000270565b5060208310610133831016604e8410600b8410161715620002415782820a9050838111156200023b576200023a620000fa565b5b62000270565b62000250848484600162000133565b925090508184048111156200026a5762000269620000fa565b5b81810290505b9392505050565b5f819050919050565b5f6200028c8262000277565b9150620002998362000277565b9250620002c87fffffffffffffffffffffffffffffffffffffffffffffffffffffffffffffffff84846200018d565b905092915050565b611f5680620002de5f395ff3fe6080604052600436106100e7575f3560e01c80635faf2880116100895780638f32d59b116100585780638f32d59b146102b6578063c39cbef1146102e0578063ccf670f814610308578063f2fde38b14610330576100e7565b80635faf288014610226578063715018a61461024e5780637bff0a01146102645780638da5cb5b1461028c576100e7565b80633ccfd60b116100c55780633ccfd60b146101705780634412e10414610186578063528b7b8f146101c25780635f4623f1146101fe576100e7565b80630ce90ec2146100eb57806317a7f4cc146101075780632052465e1461012f575b5f80fd5b610105600480360381019061010091906111e8565b610358565b005b348015610112575f80fd5b5061012d60048036038101906101289190611213565b6103e7565b005b34801561013a575f80fd5b50610155600480360381019061015091906111e8565b610501565b60405161016796959493929190611324565b60405180910390f35b34801561017b575f80fd5b50610184610609565b005b348015610191575f80fd5b506101ac60048036038101906101a791906113e4565b61066b565b6040516101b991906114c6565b60405180910390f35b3480156101cd575f80fd5b506101e860048036038101906101e391906111e8565b6107b6565b6040516101f591906114f5565b60405180910390f35b348015610209575f80fd5b50610224600480360381019061021f91906113e4565b6107e6565b005b348015610231575f80fd5b5061024c60048036038101906102479190611213565b610839565b005b348015610259575f80fd5b50610262610917565b005b34801561026f575f80fd5b5061028a6004803603810190610285919061163a565b6109e1565b005b348015610297575f80fd5b506102a0610a5d565b6040516102ad91906114f5565b60405180910390f35b3480156102c1575f80fd5b506102ca610a84565b6040516102d7919061169b565b60405180910390f35b3480156102eb575f80fd5b5061030660048036038101906103019190611711565b610ad9565b005b348015610313575f80fd5b5061032e600480360381019061032991906111e8565b610bc2565b005b34801561033b575f80fd5b50610356600480360381019061035191906113e4565b610bdc565b005b6008543414610365575f80fd5b60016004828154811061037b5761037a61176e565b5b905f5260205f2090600302016002015f9054906101000a900463ffffffff166103a491906117c8565b600482815481106103b8576103b761176e565b5b905f5260205f2090600302016002015f6101000a81548163ffffffff021916908363ffffffff16021790555050565b5f60075f9054906101000a900473ffffffffffffffffffffffffffffffffffffffff1673ffffffffffffffffffffffffffffffffffffffff1663e98b7f4d836040518263ffffffff1660e01b815260040161044291906117ff565b61014060405180830381865afa15801561045e573d5f803e3d5ffd5b505050506040513d601f19601f820116820180604052508101906104829190611856565b909192939495969798509091929394959697509091929394959650909192939495509091929394509091929350909192509091509050809150506104fc83826040518060400160405280600581526020017f6b69747479000000000000000000000000000000000000000000000000000000815250610bf8565b505050565b60048181548110610510575f80fd5b905f5260205f2090600302015f91509050805f01805461052f9061195c565b80601f016020809104026020016040519081016040528092919081815260200182805461055b9061195c565b80156105a65780601f1061057d576101008083540402835291602001916105a6565b820191905f5260205f20905b81548152906001019060200180831161058957829003601f168201915b505050505090806001015490806002015f9054906101000a900463ffffffff16908060020160049054906101000a900463ffffffff16908060020160089054906101000a900461ffff169080600201600a9054906101000a900461ffff16905086565b610611610a84565b610619575f80fd5b5f610622610a5d565b90508073ffffffffffffffffffffffffffffffffffffffff166108fc4790811502906040515f60405180830381858888f19350505050158015610667573d5f803e3d5ffd5b5050565b60605f60065f8473ffffffffffffffffffffffffffffffffffffffff1673ffffffffffffffffffffffffffffffffffffffff1681526020019081526020015f205467ffffffffffffffff8111156106c5576106c4611516565b5b6040519080825280602002602001820160405280156106f35781602001602082028036833780820191505090505b5090505f805b6004805490508110156107ab578473ffffffffffffffffffffffffffffffffffffffff1660055f8381526020019081526020015f205f9054906101000a900473ffffffffffffffffffffffffffffffffffffffff1673ffffffffffffffffffffffffffffffffffffffff1603610798578083838151811061077d5761077c61176e565b5b60200260200101818152505081806107949061198c565b9250505b80806107a39061198c565b9150506106f9565b508192505050919050565b6005602052805f5260405f205f915054906101000a900473ffffffffffffffffffffffffffffffffffffffff1681565b6107ee610a84565b6107f6575f80fd5b8060075f6101000a81548173ffffffffffffffffffffffffffffffffffffffff021916908373ffffffffffffffffffffffffffffffffffffffff16021790555050565b60148281600482815481106108515761085061176e565b5b905f5260205f2090600302016002015f9054906101000a900463ffffffff1663ffffffff161015610880575f80fd5b8360055f8281526020019081526020015f205f9054906101000a900473ffffffffffffffffffffffffffffffffffffffff1673ffffffffffffffffffffffffffffffffffffffff163373ffffffffffffffffffffffffffffffffffffffff16146108e8575f80fd5b83600486815481106108fd576108fc61176e565b5b905f5260205f209060030201600101819055505050505050565b61091f610a84565b610927575f80fd5b5f73ffffffffffffffffffffffffffffffffffffffff165f8054906101000a900473ffffffffffffffffffffffffffffffffffffffff1673ffffffffffffffffffffffffffffffffffffffff167f8be0079c531659141344cd1fd0a4f28419497f9722a3daafe3b4186f6b6457e060405160405180910390a35f805f6101000a81548173ffffffffffffffffffffffffffffffffffffffff021916908373ffffffffffffffffffffffffffffffffffffffff160217905550565b5f60065f3373ffffffffffffffffffffffffffffffffffffffff1673ffffffffffffffffffffffffffffffffffffffff1681526020019081526020015f205414610a29575f80fd5b5f610a3382610d8b565b9050606481610a429190611a00565b81610a4d9190611a30565b9050610a598282610dce565b5050565b5f805f9054906101000a900473ffffffffffffffffffffffffffffffffffffffff16905090565b5f805f9054906101000a900473ffffffffffffffffffffffffffffffffffffffff1673ffffffffffffffffffffffffffffffffffffffff163373ffffffffffffffffffffffffffffffffffffffff1614905090565b6002838160048281548110610af157610af061176e565b5b905f5260205f2090600302016002015f9054906101000a900463ffffffff1663ffffffff161015610b20575f80fd5b8460055f8281526020019081526020015f205f9054906101000a900473ffffffffffffffffffffffffffffffffffffffff1673ffffffffffffffffffffffffffffffffffffffff163373ffffffffffffffffffffffffffffffffffffffff1614610b88575f80fd5b848460048881548110610b9e57610b9d61176e565b5b905f5260205f2090600302015f019182610bb9929190611c0a565b50505050505050565b610bca610a84565b610bd2575f80fd5b8060088190555050565b610be4610a84565b610bec575f80fd5b610bf58161102e565b50565b8260055f8281526020019081526020015f205f9054906101000a900473ffffffffffffffffffffffffffffffffffffffff1673ffffffffffffffffffffffffffffffffffffffff163373ffffffffffffffffffffffffffffffffffffffff1614610c60575f80fd5b5f60048581548110610c7557610c7461176e565b5b905f5260205f2090600302019050610c8c81611120565b610c94575f80fd5b60025484610ca29190611a00565b93505f6002858360010154610cb79190611cd7565b610cc19190611d0a565b9050604051602001610cd290611d8e565b6040516020818303038152906040528051906020012084604051602001610cf99190611dd2565b6040516020818303038152906040528051906020012003610d3b576063606482610d239190611a00565b82610d2e9190611a30565b610d389190611cd7565b90505b610d7a6040518060400160405280600681526020017f4e6f4e616d65000000000000000000000000000000000000000000000000000081525082610dce565b610d8382611146565b505050505050565b5f8082604051602001610d9e9190611dd2565b604051602081830303815290604052805190602001205f1c905060025481610dc69190611a00565b915050919050565b60046040518060c00160405280848152602001838152602001600163ffffffff16815260200160035442610e029190611cd7565b63ffffffff1681526020015f61ffff1681526020015f61ffff16815250908060018154018082558091505060019003905f5260205f2090600302015f909190919091505f820151815f019081610e589190611de8565b50602082015181600101556040820151816002015f6101000a81548163ffffffff021916908363ffffffff16021790555060608201518160020160046101000a81548163ffffffff021916908363ffffffff16021790555060808201518160020160086101000a81548161ffff021916908361ffff16021790555060a082015181600201600a6101000a81548161ffff021916908361ffff16021790555050505f6001600480549050610f0b9190611a30565b90503360055f8381526020019081526020015f205f6101000a81548173ffffffffffffffffffffffffffffffffffffffff021916908373ffffffffffffffffffffffffffffffffffffffff160217905550610fad600160065f3373ffffffffffffffffffffffffffffffffffffffff1673ffffffffffffffffffffffffffffffffffffffff1681526020019081526020015f205461117990919063ffffffff16565b60065f3373ffffffffffffffffffffffffffffffffffffffff1673ffffffffffffffffffffffffffffffffffffffff1681526020019081526020015f20819055507f88f026aacbbecc90c18411df4b1185fd8d9be2470f1962f192bf84a27d0704b781848460405161102193929190611eb7565b60405180910390a1505050565b5f73ffffffffffffffffffffffffffffffffffffffff168173ffffffffffffffffffffffffffffffffffffffff1603611065575f80fd5b8073ffffffffffffffffffffffffffffffffffffffff165f8054906101000a900473ffffffffffffffffffffffffffffffffffffffff1673ffffffffffffffffffffffffffffffffffffffff167f8be0079c531659141344cd1fd0a4f28419497f9722a3daafe3b4186f6b6457e060405160405180910390a3805f806101000a81548173ffffffffffffffffffffffffffffffffffffffff021916908373ffffffffffffffffffffffffffffffffffffffff16021790555050565b5f428260020160049054906101000a900463ffffffff1663ffffffff1611159050919050565b600354426111549190611cd7565b8160020160046101000a81548163ffffffff021916908363ffffffff16021790555050565b5f8082846111879190611cd7565b90508381101561119a57611199611ef3565b5b8091505092915050565b5f604051905090565b5f80fd5b5f80fd5b5f819050919050565b6111c7816111b5565b81146111d1575f80fd5b50565b5f813590506111e2816111be565b92915050565b5f602082840312156111fd576111fc6111ad565b5b5f61120a848285016111d4565b91505092915050565b5f8060408385031215611229576112286111ad565b5b5f611236858286016111d4565b9250506020611247858286016111d4565b9150509250929050565b5f81519050919050565b5f82825260208201905092915050565b5f5b8381101561128857808201518184015260208101905061126d565b5f8484015250505050565b5f601f19601f8301169050919050565b5f6112ad82611251565b6112b7818561125b565b93506112c781856020860161126b565b6112d081611293565b840191505092915050565b6112e4816111b5565b82525050565b5f63ffffffff82169050919050565b611302816112ea565b82525050565b5f61ffff82169050919050565b61131e81611308565b82525050565b5f60c0820190508181035f83015261133c81896112a3565b905061134b60208301886112db565b61135860408301876112f9565b61136560608301866112f9565b6113726080830185611315565b61137f60a0830184611315565b979650505050505050565b5f73ffffffffffffffffffffffffffffffffffffffff82169050919050565b5f6113b38261138a565b9050919050565b6113c3816113a9565b81146113cd575f80fd5b50565b5f813590506113de816113ba565b92915050565b5f602082840312156113f9576113f86111ad565b5b5f611406848285016113d0565b91505092915050565b5f81519050919050565b5f82825260208201905092915050565b5f819050602082019050919050565b611441816111b5565b82525050565b5f6114528383611438565b60208301905092915050565b5f602082019050919050565b5f6114748261140f565b61147e8185611419565b935061148983611429565b805f5b838110156114b95781516114a08882611447565b97506114ab8361145e565b92505060018101905061148c565b5085935050505092915050565b5f6020820190508181035f8301526114de818461146a565b905092915050565b6114ef816113a9565b82525050565b5f6020820190506115085f8301846114e6565b92915050565b5f80fd5b5f80fd5b7f4e487b71000000000000000000000000000000000000000000000000000000005f52604160045260245ffd5b61154c82611293565b810181811067ffffffffffffffff8211171561156b5761156a611516565b5b80604052505050565b5f61157d6111a4565b90506115898282611543565b919050565b5f67ffffffffffffffff8211156115a8576115a7611516565b5b6115b182611293565b9050602081019050919050565b828183375f83830152505050565b5f6115de6115d98461158e565b611574565b9050828152602081018484840111156115fa576115f9611512565b5b6116058482856115be565b509392505050565b5f82601f8301126116215761162061150e565b5b81356116318482602086016115cc565b91505092915050565b5f6020828403121561164f5761164e6111ad565b5b5f82013567ffffffffffffffff81111561166c5761166b6111b1565b5b6116788482850161160d565b91505092915050565b5f8115159050919050565b61169581611681565b82525050565b5f6020820190506116ae5f83018461168c565b92915050565b5f80fd5b5f80fd5b5f8083601f8401126116d1576116d061150e565b5b8235905067ffffffffffffffff8111156116ee576116ed6116b4565b5b60208301915083600182028301111561170a576117096116b8565b5b9250929050565b5f805f60408486031215611728576117276111ad565b5b5f611735868287016111d4565b935050602084013567ffffffffffffffff811115611756576117556111b1565b5b611762868287016116bc565b92509250509250925092565b7f4e487b71000000000000000000000000000000000000000000000000000000005f52603260045260245ffd5b7f4e487b71000000000000000000000000000000000000000000000000000000005f52601160045260245ffd5b5f6117d2826112ea565b91506117dd836112ea565b9250828201905063ffffffff8111156117f9576117f861179b565b5b92915050565b5f6020820190506118125f8301846112db565b92915050565b61182181611681565b811461182b575f80fd5b50565b5f8151905061183c81611818565b92915050565b5f81519050611850816111be565b92915050565b5f805f805f805f805f806101408b8d031215611875576118746111ad565b5b5f6118828d828e0161182e565b9a505060206118938d828e0161182e565b99505060406118a48d828e01611842565b98505060606118b58d828e01611842565b97505060806118c68d828e01611842565b96505060a06118d78d828e01611842565b95505060c06118e88d828e01611842565b94505060e06118f98d828e01611842565b93505061010061190b8d828e01611842565b92505061012061191d8d828e01611842565b9150509295989b9194979a5092959850565b7f4e487b71000000000000000000000000000000000000000000000000000000005f52602260045260245ffd5b5f600282049050600182168061197357607f821691505b6020821081036119865761198561192f565b5b50919050565b5f611996826111b5565b91507fffffffffffffffffffffffffffffffffffffffffffffffffffffffffffffffff82036119c8576119c761179b565b5b600182019050919050565b7f4e487b71000000000000000000000000000000000000000000000000000000005f52601260045260245ffd5b5f611a0a826111b5565b9150611a15836111b5565b925082611a2557611a246119d3565b5b828206905092915050565b5f611a3a826111b5565b9150611a45836111b5565b9250828203905081811115611a5d57611a5c61179b565b5b92915050565b5f82905092915050565b5f819050815f5260205f209050919050565b5f6020601f8301049050919050565b5f82821b905092915050565b5f60088302611ac97fffffffffffffffffffffffffffffffffffffffffffffffffffffffffffffffff82611a8e565b611ad38683611a8e565b95508019841693508086168417925050509392505050565b5f819050919050565b5f611b0e611b09611b04846111b5565b611aeb565b6111b5565b9050919050565b5f819050919050565b611b2783611af4565b611b3b611b3382611b15565b848454611a9a565b825550505050565b5f90565b611b4f611b43565b611b5a818484611b1e565b505050565b5b81811015611b7d57611b725f82611b47565b600181019050611b60565b5050565b601f821115611bc257611b9381611a6d565b611b9c84611a7f565b81016020851015611bab578190505b611bbf611bb785611a7f565b830182611b5f565b50505b505050565b5f82821c905092915050565b5f611be25f1984600802611bc7565b1980831691505092915050565b5f611bfa8383611bd3565b9150826002028217905092915050565b611c148383611a63565b67ffffffffffffffff811115611c2d57611c2c611516565b5b611c37825461195c565b611c42828285611b81565b5f601f831160018114611c6f575f8415611c5d578287013590505b611c678582611bef565b865550611cce565b601f198416611c7d86611a6d565b5f5b82811015611ca457848901358255600182019150602085019450602081019050611c7f565b86831015611cc15784890135611cbd601f891682611bd3565b8355505b6001600288020188555050505b50505050505050565b5f611ce1826111b5565b9150611cec836111b5565b9250828201905080821115611d0457611d0361179b565b5b92915050565b5f611d14826111b5565b9150611d1f836111b5565b925082611d2f57611d2e6119d3565b5b828204905092915050565b5f81905092915050565b7f6b697474790000000000000000000000000000000000000000000000000000005f82015250565b5f611d78600583611d3a565b9150611d8382611d44565b600582019050919050565b5f611d9882611d6c565b9150819050919050565b5f611dac82611251565b611db68185611d3a565b9350611dc681856020860161126b565b80840191505092915050565b5f611ddd8284611da2565b915081905092915050565b611df182611251565b67ffffffffffffffff811115611e0a57611e09611516565b5b611e14825461195c565b611e1f828285611b81565b5f60209050601f831160018114611e50575f8415611e3e578287015190505b611e488582611bef565b865550611eaf565b601f198416611e5e86611a6d565b5f5b82811015611e8557848901518255600182019150602085019450602081019050611e60565b86831015611ea25784890151611e9e601f891682611bd3565b8355505b6001600288020188555050505b505050505050565b5f606082019050611eca5f8301866112db565b8181036020830152611edc81856112a3565b9050611eeb60408301846112db565b949350505050565b7f4e487b71000000000000000000000000000000000000000000000000000000005f52600160045260245ffdfea26469706673582212205b817fa59099a9989ab1280ad14a90724ce6de8aca28cccf2407a38cfd99f8e264736f6c63430008150033",
  "immutableReferences": {},
  "source": "// SPDX-License-Identifier: UNLICENSED\npragma solidity ^0.8.21;\n\nimport \"./zombiefeeding.sol\";\nimport \"./safemath.sol\";\n\ncontract ZombieHelper is ZombieFeeding {\n    uint levelUpFee = 0.001 ether;\n\n    modifier aboveLevel(uint _level, uint _zombieId) {\n        require(zombies[_zombieId].level >= _level);\n        _;\n    }\n\n    function withdraw() external onlyOwner {\n        address _owner = owner();\n        payable(_owner).transfer(address(this).balance);\n    }\n\n    function setLevelUpFee(uint _fee) external onlyOwner {\n        levelUpFee = _fee;\n    }\n\n    function levelUp(uint _zombieId) external payable {\n        require(msg.value == levelUpFee);\n        zombies[_zombieId].level = zombies[_zombieId].level + 1;\n    }\n\n    function changeName(\n        uint _zombieId,\n        string calldata _newName\n    ) external aboveLevel(2, _zombieId) onlyOwnerOf(_zombieId) {\n        zombies[_zombieId].name = _newName;\n    }\n\n    function changeDna(\n        uint _zombieId,\n        uint _newDna\n    ) external aboveLevel(20, _zombieId) onlyOwnerOf(_zombieId) {\n        zombies[_zombieId].dna = _newDna;\n    }\n\n    function getZombiesByOwner(\n        address _owner\n    ) external view returns (uint[] memory) {\n        uint[] memory result = new uint[](ownerZombieCount[_owner]);\n        uint counter = 0;\n        for (uint i = 0; i < zombies.length; i++) {\n            if (zombieToOwner[i] == _owner) {\n                result[counter] = i;\n                counter++;\n            }\n        }\n        return result;\n    }\n}\n",
  "sourcePath": "/Users/yoshimuratakuma/products/try-dapps/contracts/zombiehelper.sol",
  "compiler": {
    "name": "solc",
    "version": "0.8.21+commit.d9974bed.Emscripten.clang"
  },
  "schemaVersion": "3.4.16",
  "updatedAt": "2023-12-22T14:42:04.525Z",
  "devdoc": {
    "kind": "dev",
    "methods": {
      "isOwner()": {
        "returns": {
          "_0": "true if `msg.sender` is the owner of the contract."
        }
      },
      "owner()": {
        "returns": {
          "_0": "the address of the owner."
        }
      },
      "renounceOwnership()": {
        "details": "Allows the current owner to relinquish control of the contract."
      },
      "transferOwnership(address)": {
        "details": "Allows the current owner to transfer control of the contract to a newOwner.",
        "params": {
          "newOwner": "The address to transfer ownership to."
        }
      }
    },
    "version": 1
  },
  "userdoc": {
    "kind": "user",
    "methods": {
      "renounceOwnership()": {
        "notice": "Renouncing to ownership will leave the contract without an owner. It will not be possible to call the functions with the `onlyOwner` modifier anymore."
      }
    },
    "version": 1
  }
}